{"abi":[{"type":"constructor","inputs":[{"name":"_collection","type":"address","internalType":"contract MyERC721"}],"stateMutability":"nonpayable"},{"type":"function","name":"buyNFT","inputs":[{"name":"tokenId","type":"uint256","internalType":"uint256"}],"outputs":[],"stateMutability":"nonpayable"},{"type":"function","name":"collection","inputs":[],"outputs":[{"name":"","type":"address","internalType":"contract MyERC721"}],"stateMutability":"view"},{"type":"function","name":"getListing","inputs":[{"name":"tokenId","type":"uint256","internalType":"uint256"}],"outputs":[{"name":"listing","type":"tuple","internalType":"struct NFTMarket.Listing","components":[{"name":"seller","type":"address","internalType":"address"},{"name":"paymentToken","type":"address","internalType":"contract MyERC20"},{"name":"price","type":"uint256","internalType":"uint256"}]}],"stateMutability":"view"},{"type":"function","name":"list","inputs":[{"name":"tokenId","type":"uint256","internalType":"uint256"},{"name":"paymentToken","type":"address","internalType":"contract MyERC20"},{"name":"price","type":"uint256","internalType":"uint256"}],"outputs":[],"stateMutability":"nonpayable"},{"type":"function","name":"listings","inputs":[{"name":"tokenId","type":"uint256","internalType":"uint256"}],"outputs":[{"name":"seller","type":"address","internalType":"address"},{"name":"paymentToken","type":"address","internalType":"contract MyERC20"},{"name":"price","type":"uint256","internalType":"uint256"}],"stateMutability":"view"},{"type":"function","name":"onERC721Received","inputs":[{"name":"","type":"address","internalType":"address"},{"name":"","type":"address","internalType":"address"},{"name":"","type":"uint256","internalType":"uint256"},{"name":"","type":"bytes","internalType":"bytes"}],"outputs":[{"name":"","type":"bytes4","internalType":"bytes4"}],"stateMutability":"view"},{"type":"function","name":"tokensReceived","inputs":[{"name":"from","type":"address","internalType":"address"},{"name":"amount","type":"uint256","internalType":"uint256"},{"name":"data","type":"bytes","internalType":"bytes"}],"outputs":[],"stateMutability":"nonpayable"},{"type":"event","name":"NFTListed","inputs":[{"name":"seller","type":"address","indexed":true,"internalType":"address"},{"name":"tokenId","type":"uint256","indexed":true,"internalType":"uint256"},{"name":"paymentToken","type":"address","indexed":true,"internalType":"address"},{"name":"price","type":"uint256","indexed":false,"internalType":"uint256"}],"anonymous":false},{"type":"event","name":"NFTPurchased","inputs":[{"name":"buyer","type":"address","indexed":true,"internalType":"address"},{"name":"seller","type":"address","indexed":true,"internalType":"address"},{"name":"tokenId","type":"uint256","indexed":true,"internalType":"uint256"},{"name":"paymentToken","type":"address","indexed":false,"internalType":"address"},{"name":"price","type":"uint256","indexed":false,"internalType":"uint256"},{"name":"amountPaid","type":"uint256","indexed":false,"internalType":"uint256"},{"name":"viaCallback","type":"bool","indexed":false,"internalType":"bool"}],"anonymous":false}],"bytecode":{"object":"0x60a060405234801561000f575f80fd5b5060405161208b38038061208b833981810160405281019061003191906100da565b8073ffffffffffffffffffffffffffffffffffffffff1660808173ffffffffffffffffffffffffffffffffffffffff168152505050610105565b5f80fd5b5f73ffffffffffffffffffffffffffffffffffffffff82169050919050565b5f6100988261006f565b9050919050565b5f6100a98261008e565b9050919050565b6100b98161009f565b81146100c3575f80fd5b50565b5f815190506100d4816100b0565b92915050565b5f602082840312156100ef576100ee61006b565b5b5f6100fc848285016100c6565b91505092915050565b608051611f3d61014e5f395f8181610263015281816103ba015281816106460152818161090501528181610b1f01528181610c2801528181610ee101526111d30152611f3d5ff3fe608060405234801561000f575f80fd5b506004361061007b575f3560e01c806351ed82881161005957806351ed8288146100fb5780637de1e53614610117578063d031426314610135578063de74e57b146101515761007b565b8063107a274a1461007f578063150b7a02146100af57806328f251b3146100df575b5f80fd5b610099600480360381019061009491906113c3565b610183565b6040516100a691906114d7565b60405180910390f35b6100c960048036038101906100c4919061157b565b610260565b6040516100d69190611639565b60405180910390f35b6100f960048036038101906100f4919061168d565b610302565b005b610115600480360381019061011091906113c3565b610739565b005b61011f610c26565b60405161012c91906116fd565b60405180910390f35b61014f600480360381019061014a9190611716565b610c4a565b005b61016b600480360381019061016691906113c3565b6112db565b60405161017a939291906117b4565b60405180910390f35b61018b61133e565b5f808381526020019081526020015f206040518060600160405290815f82015f9054906101000a900473ffffffffffffffffffffffffffffffffffffffff1673ffffffffffffffffffffffffffffffffffffffff1673ffffffffffffffffffffffffffffffffffffffff168152602001600182015f9054906101000a900473ffffffffffffffffffffffffffffffffffffffff1673ffffffffffffffffffffffffffffffffffffffff1673ffffffffffffffffffffffffffffffffffffffff1681526020016002820154815250509050919050565b5f7f000000000000000000000000000000000000000000000000000000000000000073ffffffffffffffffffffffffffffffffffffffff163373ffffffffffffffffffffffffffffffffffffffff16146102ef576040517f08c379a00000000000000000000000000000000000000000000000000000000081526004016102e690611843565b60405180910390fd5b63150b7a0260e01b905095945050505050565b5f73ffffffffffffffffffffffffffffffffffffffff165f808581526020019081526020015f205f015f9054906101000a900473ffffffffffffffffffffffffffffffffffffffff1673ffffffffffffffffffffffffffffffffffffffff16146103a1576040517f08c379a0000000000000000000000000000000000000000000000000000000008152600401610398906118ab565b60405180910390fd5b3373ffffffffffffffffffffffffffffffffffffffff167f000000000000000000000000000000000000000000000000000000000000000073ffffffffffffffffffffffffffffffffffffffff16636352211e856040518263ffffffff1660e01b815260040161041191906118c9565b602060405180830381865afa15801561042c573d5f803e3d5ffd5b505050506040513d601f19601f8201168201806040525081019061045091906118f6565b73ffffffffffffffffffffffffffffffffffffffff16146104a6576040517f08c379a000000000000000000000000000000000000000000000000000000000815260040161049d9061196b565b60405180910390fd5b5f73ffffffffffffffffffffffffffffffffffffffff168273ffffffffffffffffffffffffffffffffffffffff1603610514576040517f08c379a000000000000000000000000000000000000000000000000000000000815260040161050b906119d3565b60405180910390fd5b5f8111610556576040517f08c379a000000000000000000000000000000000000000000000000000000000815260040161054d90611a3b565b60405180910390fd5b60405180606001604052803373ffffffffffffffffffffffffffffffffffffffff1681526020018373ffffffffffffffffffffffffffffffffffffffff168152602001828152505f808581526020019081526020015f205f820151815f015f6101000a81548173ffffffffffffffffffffffffffffffffffffffff021916908373ffffffffffffffffffffffffffffffffffffffff1602179055506020820151816001015f6101000a81548173ffffffffffffffffffffffffffffffffffffffff021916908373ffffffffffffffffffffffffffffffffffffffff160217905550604082015181600201559050507f000000000000000000000000000000000000000000000000000000000000000073ffffffffffffffffffffffffffffffffffffffff166342842e0e3330866040518463ffffffff1660e01b81526004016106a193929190611a59565b5f604051808303815f87803b1580156106b8575f80fd5b505af11580156106ca573d5f803e3d5ffd5b505050508173ffffffffffffffffffffffffffffffffffffffff16833373ffffffffffffffffffffffffffffffffffffffff167f392a0f172cb29479635d0b2219b2f96ef24f74dfdf328cb09f1496efe6cfddbe8460405161072c91906118c9565b60405180910390a4505050565b5f805f8381526020019081526020015f206040518060600160405290815f82015f9054906101000a900473ffffffffffffffffffffffffffffffffffffffff1673ffffffffffffffffffffffffffffffffffffffff1673ffffffffffffffffffffffffffffffffffffffff168152602001600182015f9054906101000a900473ffffffffffffffffffffffffffffffffffffffff1673ffffffffffffffffffffffffffffffffffffffff1673ffffffffffffffffffffffffffffffffffffffff16815260200160028201548152505090505f73ffffffffffffffffffffffffffffffffffffffff16815f015173ffffffffffffffffffffffffffffffffffffffff160361087b576040517f08c379a000000000000000000000000000000000000000000000000000000000815260040161087290611ad8565b60405180910390fd5b805f015173ffffffffffffffffffffffffffffffffffffffff163373ffffffffffffffffffffffffffffffffffffffff16036108ec576040517f08c379a00000000000000000000000000000000000000000000000000000000081526004016108e390611b40565b60405180910390fd5b3073ffffffffffffffffffffffffffffffffffffffff167f000000000000000000000000000000000000000000000000000000000000000073ffffffffffffffffffffffffffffffffffffffff16636352211e846040518263ffffffff1660e01b815260040161095c91906118c9565b602060405180830381865afa158015610977573d5f803e3d5ffd5b505050506040513d601f19601f8201168201806040525081019061099b91906118f6565b73ffffffffffffffffffffffffffffffffffffffff16146109f1576040517f08c379a00000000000000000000000000000000000000000000000000000000081526004016109e890611ba8565b60405180910390fd5b5f808381526020019081526020015f205f8082015f6101000a81549073ffffffffffffffffffffffffffffffffffffffff0219169055600182015f6101000a81549073ffffffffffffffffffffffffffffffffffffffff0219169055600282015f90555050806020015173ffffffffffffffffffffffffffffffffffffffff166323b872dd33835f015184604001516040518463ffffffff1660e01b8152600401610a9e93929190611a59565b6020604051808303815f875af1158015610aba573d5f803e3d5ffd5b505050506040513d601f19601f82011682018060405250810190610ade9190611bfb565b610b1d576040517f08c379a0000000000000000000000000000000000000000000000000000000008152600401610b1490611c70565b60405180910390fd5b7f000000000000000000000000000000000000000000000000000000000000000073ffffffffffffffffffffffffffffffffffffffff166342842e0e3033856040518463ffffffff1660e01b8152600401610b7a93929190611a59565b5f604051808303815f87803b158015610b91575f80fd5b505af1158015610ba3573d5f803e3d5ffd5b5050505081815f015173ffffffffffffffffffffffffffffffffffffffff163373ffffffffffffffffffffffffffffffffffffffff167f396132203468bb6f0b9dbe264d21319b345b38fcfcf956c9607083626efb06978460200151856040015186604001515f604051610c1a9493929190611c9d565b60405180910390a45050565b7f000000000000000000000000000000000000000000000000000000000000000081565b5f8282810190610c5a91906113c3565b90505f805f8381526020019081526020015f206040518060600160405290815f82015f9054906101000a900473ffffffffffffffffffffffffffffffffffffffff1673ffffffffffffffffffffffffffffffffffffffff1673ffffffffffffffffffffffffffffffffffffffff168152602001600182015f9054906101000a900473ffffffffffffffffffffffffffffffffffffffff1673ffffffffffffffffffffffffffffffffffffffff1673ffffffffffffffffffffffffffffffffffffffff16815260200160028201548152505090505f73ffffffffffffffffffffffffffffffffffffffff16815f015173ffffffffffffffffffffffffffffffffffffffff1603610d9e576040517f08c379a0000000000000000000000000000000000000000000000000000000008152600401610d9590611ad8565b60405180910390fd5b806020015173ffffffffffffffffffffffffffffffffffffffff163373ffffffffffffffffffffffffffffffffffffffff1614610e10576040517f08c379a0000000000000000000000000000000000000000000000000000000008152600401610e0790611d2a565b60405180910390fd5b805f015173ffffffffffffffffffffffffffffffffffffffff168673ffffffffffffffffffffffffffffffffffffffff1603610e81576040517f08c379a0000000000000000000000000000000000000000000000000000000008152600401610e7890611b40565b60405180910390fd5b8060400151851015610ec8576040517f08c379a0000000000000000000000000000000000000000000000000000000008152600401610ebf90611d92565b60405180910390fd5b3073ffffffffffffffffffffffffffffffffffffffff167f000000000000000000000000000000000000000000000000000000000000000073ffffffffffffffffffffffffffffffffffffffff16636352211e846040518263ffffffff1660e01b8152600401610f3891906118c9565b602060405180830381865afa158015610f53573d5f803e3d5ffd5b505050506040513d601f19601f82011682018060405250810190610f7791906118f6565b73ffffffffffffffffffffffffffffffffffffffff1614610fcd576040517f08c379a0000000000000000000000000000000000000000000000000000000008152600401610fc490611ba8565b60405180910390fd5b5f808381526020019081526020015f205f8082015f6101000a81549073ffffffffffffffffffffffffffffffffffffffff0219169055600182015f6101000a81549073ffffffffffffffffffffffffffffffffffffffff0219169055600282015f90555050806020015173ffffffffffffffffffffffffffffffffffffffff1663a9059cbb825f015183604001516040518363ffffffff1660e01b8152600401611078929190611db0565b6020604051808303815f875af1158015611094573d5f803e3d5ffd5b505050506040513d601f19601f820116820180604052508101906110b89190611bfb565b6110f7576040517f08c379a00000000000000000000000000000000000000000000000000000000081526004016110ee90611e21565b60405180910390fd5b80604001518511156111d157806020015173ffffffffffffffffffffffffffffffffffffffff1663a9059cbb878360400151886111349190611e6c565b6040518363ffffffff1660e01b8152600401611151929190611db0565b6020604051808303815f875af115801561116d573d5f803e3d5ffd5b505050506040513d601f19601f820116820180604052508101906111919190611bfb565b6111d0576040517f08c379a00000000000000000000000000000000000000000000000000000000081526004016111c790611ee9565b60405180910390fd5b5b7f000000000000000000000000000000000000000000000000000000000000000073ffffffffffffffffffffffffffffffffffffffff166342842e0e3088856040518463ffffffff1660e01b815260040161122e93929190611a59565b5f604051808303815f87803b158015611245575f80fd5b505af1158015611257573d5f803e3d5ffd5b5050505081815f015173ffffffffffffffffffffffffffffffffffffffff168773ffffffffffffffffffffffffffffffffffffffff167f396132203468bb6f0b9dbe264d21319b345b38fcfcf956c9607083626efb0697846020015185604001518a60016040516112cb9493929190611c9d565b60405180910390a4505050505050565b5f602052805f5260405f205f91509050805f015f9054906101000a900473ffffffffffffffffffffffffffffffffffffffff1690806001015f9054906101000a900473ffffffffffffffffffffffffffffffffffffffff16908060020154905083565b60405180606001604052805f73ffffffffffffffffffffffffffffffffffffffff1681526020015f73ffffffffffffffffffffffffffffffffffffffff1681526020015f81525090565b5f80fd5b5f80fd5b5f819050919050565b6113a281611390565b81146113ac575f80fd5b50565b5f813590506113bd81611399565b92915050565b5f602082840312156113d8576113d7611388565b5b5f6113e5848285016113af565b91505092915050565b5f73ffffffffffffffffffffffffffffffffffffffff82169050919050565b5f611417826113ee565b9050919050565b6114278161140d565b82525050565b5f819050919050565b5f61145061144b611446846113ee565b61142d565b6113ee565b9050919050565b5f61146182611436565b9050919050565b5f61147282611457565b9050919050565b61148281611468565b82525050565b61149181611390565b82525050565b606082015f8201516114ab5f85018261141e565b5060208201516114be6020850182611479565b5060408201516114d16040850182611488565b50505050565b5f6060820190506114ea5f830184611497565b92915050565b6114f98161140d565b8114611503575f80fd5b50565b5f81359050611514816114f0565b92915050565b5f80fd5b5f80fd5b5f80fd5b5f8083601f84011261153b5761153a61151a565b5b8235905067ffffffffffffffff8111156115585761155761151e565b5b60208301915083600182028301111561157457611573611522565b5b9250929050565b5f805f805f6080868803121561159457611593611388565b5b5f6115a188828901611506565b95505060206115b288828901611506565b94505060406115c3888289016113af565b935050606086013567ffffffffffffffff8111156115e4576115e361138c565b5b6115f088828901611526565b92509250509295509295909350565b5f7fffffffff0000000000000000000000000000000000000000000000000000000082169050919050565b611633816115ff565b82525050565b5f60208201905061164c5f83018461162a565b92915050565b5f61165c8261140d565b9050919050565b61166c81611652565b8114611676575f80fd5b50565b5f8135905061168781611663565b92915050565b5f805f606084860312156116a4576116a3611388565b5b5f6116b1868287016113af565b93505060206116c286828701611679565b92505060406116d3868287016113af565b9150509250925092565b5f6116e782611457565b9050919050565b6116f7816116dd565b82525050565b5f6020820190506117105f8301846116ee565b92915050565b5f805f806060858703121561172e5761172d611388565b5b5f61173b87828801611506565b945050602061174c878288016113af565b935050604085013567ffffffffffffffff81111561176d5761176c61138c565b5b61177987828801611526565b925092505092959194509250565b6117908161140d565b82525050565b61179f81611468565b82525050565b6117ae81611390565b82525050565b5f6060820190506117c75f830186611787565b6117d46020830185611796565b6117e160408301846117a5565b949350505050565b5f82825260208201905092915050565b7f4e46544d61726b65743a20756e737570706f72746564204e46540000000000005f82015250565b5f61182d601a836117e9565b9150611838826117f9565b602082019050919050565b5f6020820190508181035f83015261185a81611821565b9050919050565b7f4e46544d61726b65743a20616c7265616479206c6973746564000000000000005f82015250565b5f6118956019836117e9565b91506118a082611861565b602082019050919050565b5f6020820190508181035f8301526118c281611889565b9050919050565b5f6020820190506118dc5f8301846117a5565b92915050565b5f815190506118f0816114f0565b92915050565b5f6020828403121561190b5761190a611388565b5b5f611918848285016118e2565b91505092915050565b7f4e46544d61726b65743a206e6f7420746f6b656e206f776e65720000000000005f82015250565b5f611955601a836117e9565b915061196082611921565b602082019050919050565b5f6020820190508181035f83015261198281611949565b9050919050565b7f4e46544d61726b65743a20696e76616c6964207061796d656e7420746f6b656e5f82015250565b5f6119bd6020836117e9565b91506119c882611989565b602082019050919050565b5f6020820190508181035f8301526119ea816119b1565b9050919050565b7f4e46544d61726b65743a20696e76616c696420707269636500000000000000005f82015250565b5f611a256018836117e9565b9150611a30826119f1565b602082019050919050565b5f6020820190508181035f830152611a5281611a19565b9050919050565b5f606082019050611a6c5f830186611787565b611a796020830185611787565b611a8660408301846117a5565b949350505050565b7f4e46544d61726b65743a206e6f74206c697374656400000000000000000000005f82015250565b5f611ac26015836117e9565b9150611acd82611a8e565b602082019050919050565b5f6020820190508181035f830152611aef81611ab6565b9050919050565b7f4e46544d61726b65743a2073656c6c65722063616e6e6f7420627579000000005f82015250565b5f611b2a601c836117e9565b9150611b3582611af6565b602082019050919050565b5f6020820190508181035f830152611b5781611b1e565b9050919050565b7f4e46544d61726b65743a204e4654206e6f7420696e20657363726f77000000005f82015250565b5f611b92601c836117e9565b9150611b9d82611b5e565b602082019050919050565b5f6020820190508181035f830152611bbf81611b86565b9050919050565b5f8115159050919050565b611bda81611bc6565b8114611be4575f80fd5b50565b5f81519050611bf581611bd1565b92915050565b5f60208284031215611c1057611c0f611388565b5b5f611c1d84828501611be7565b91505092915050565b7f4e46544d61726b65743a207061796d656e74206661696c6564000000000000005f82015250565b5f611c5a6019836117e9565b9150611c6582611c26565b602082019050919050565b5f6020820190508181035f830152611c8781611c4e565b9050919050565b611c9781611bc6565b82525050565b5f608082019050611cb05f830187611787565b611cbd60208301866117a5565b611cca60408301856117a5565b611cd76060830184611c8e565b95945050505050565b7f4e46544d61726b65743a20756e737570706f7274656420746f6b656e000000005f82015250565b5f611d14601c836117e9565b9150611d1f82611ce0565b602082019050919050565b5f6020820190508181035f830152611d4181611d08565b9050919050565b7f4e46544d61726b65743a20696e73756666696369656e74207061796d656e74005f82015250565b5f611d7c601f836117e9565b9150611d8782611d48565b602082019050919050565b5f6020820190508181035f830152611da981611d70565b9050919050565b5f604082019050611dc35f830185611787565b611dd060208301846117a5565b9392505050565b7f4e46544d61726b65743a207061796f7574206661696c656400000000000000005f82015250565b5f611e0b6018836117e9565b9150611e1682611dd7565b602082019050919050565b5f6020820190508181035f830152611e3881611dff565b9050919050565b7f4e487b71000000000000000000000000000000000000000000000000000000005f52601160045260245ffd5b5f611e7682611390565b9150611e8183611390565b9250828203905081811115611e9957611e98611e3f565b5b92915050565b7f4e46544d61726b65743a20726566756e64206661696c656400000000000000005f82015250565b5f611ed36018836117e9565b9150611ede82611e9f565b602082019050919050565b5f6020820190508181035f830152611f0081611ec7565b905091905056fea26469706673582212203b935dde6ad378d26e21c327f3e28b7fca81ad19a18504f21f9b9225cd83d5b464736f6c63430008190033","linkReferences":{}},"methodIdentifiers":{"buyNFT(uint256)":"51ed8288","collection()":"7de1e536","getListing(uint256)":"107a274a","list(uint256,address,uint256)":"28f251b3","listings(uint256)":"de74e57b","onERC721Received(address,address,uint256,bytes)":"150b7a02","tokensReceived(address,uint256,bytes)":"d0314263"},"id":43}