{"abi":[{"type":"constructor","inputs":[{"name":"_token","type":"address","internalType":"contract MyERC20"}],"stateMutability":"nonpayable"},{"type":"function","name":"balanceOf","inputs":[{"name":"account","type":"address","internalType":"address"}],"outputs":[{"name":"","type":"uint256","internalType":"uint256"}],"stateMutability":"view"},{"type":"function","name":"deposit","inputs":[{"name":"amount","type":"uint256","internalType":"uint256"}],"outputs":[],"stateMutability":"nonpayable"},{"type":"function","name":"token","inputs":[],"outputs":[{"name":"","type":"address","internalType":"contract MyERC20"}],"stateMutability":"view"},{"type":"function","name":"withdraw","inputs":[{"name":"amount","type":"uint256","internalType":"uint256"}],"outputs":[],"stateMutability":"nonpayable"},{"type":"event","name":"Deposited","inputs":[{"name":"account","type":"address","indexed":true,"internalType":"address"},{"name":"amount","type":"uint256","indexed":false,"internalType":"uint256"}],"anonymous":false},{"type":"event","name":"Withdrawn","inputs":[{"name":"account","type":"address","indexed":true,"internalType":"address"},{"name":"amount","type":"uint256","indexed":false,"internalType":"uint256"}],"anonymous":false}],"bytecode":{"object":"0x60a060405234801561000f575f80fd5b50604051610acf380380610acf833981810160405281019061003191906100da565b8073ffffffffffffffffffffffffffffffffffffffff1660808173ffffffffffffffffffffffffffffffffffffffff168152505050610105565b5f80fd5b5f73ffffffffffffffffffffffffffffffffffffffff82169050919050565b5f6100988261006f565b9050919050565b5f6100a98261008e565b9050919050565b6100b98161009f565b81146100c3575f80fd5b50565b5f815190506100d4816100b0565b92915050565b5f602082840312156100ef576100ee61006b565b5b5f6100fc848285016100c6565b91505092915050565b6080516109a461012b5f395f818161023601528181610440015261052301526109a45ff3fe608060405234801561000f575f80fd5b506004361061004a575f3560e01c80632e1a7d4d1461004e57806370a082311461006a578063b6b55f251461009a578063fc0c546a146100b6575b5f80fd5b6100686004803603810190610063919061057c565b6100d4565b005b610084600480360381019061007f9190610601565b610316565b604051610091919061063b565b60405180910390f35b6100b460048036038101906100af919061057c565b61035b565b005b6100be610521565b6040516100cb91906106af565b60405180910390f35b5f8111610116576040517f08c379a000000000000000000000000000000000000000000000000000000000815260040161010d90610722565b60405180910390fd5b5f805f3373ffffffffffffffffffffffffffffffffffffffff1673ffffffffffffffffffffffffffffffffffffffff1681526020019081526020015f2054905081811015610199576040517f08c379a00000000000000000000000000000000000000000000000000000000081526004016101909061078a565b60405180910390fd5b81816101a591906107d5565b5f803373ffffffffffffffffffffffffffffffffffffffff1673ffffffffffffffffffffffffffffffffffffffff1681526020019081526020015f20819055503373ffffffffffffffffffffffffffffffffffffffff167f7084f5476618d8e60b11ef0d7d3f06914655adb8793e28ff7f018d4c76d505d58360405161022b919061063b565b60405180910390a25f7f000000000000000000000000000000000000000000000000000000000000000073ffffffffffffffffffffffffffffffffffffffff1663a9059cbb33856040518363ffffffff1660e01b815260040161028f929190610817565b6020604051808303815f875af11580156102ab573d5f803e3d5ffd5b505050506040513d601f19601f820116820180604052508101906102cf9190610873565b905080610311576040517f08c379a0000000000000000000000000000000000000000000000000000000008152600401610308906108e8565b60405180910390fd5b505050565b5f805f8373ffffffffffffffffffffffffffffffffffffffff1673ffffffffffffffffffffffffffffffffffffffff1681526020019081526020015f20549050919050565b5f811161039d576040517f08c379a000000000000000000000000000000000000000000000000000000000815260040161039490610722565b60405180910390fd5b805f803373ffffffffffffffffffffffffffffffffffffffff1673ffffffffffffffffffffffffffffffffffffffff1681526020019081526020015f205f8282546103e89190610906565b925050819055503373ffffffffffffffffffffffffffffffffffffffff167f2da466a7b24304f47e87fa2e1e5a81b9831ce54fec19055ce277ca2f39ba42c482604051610435919061063b565b60405180910390a25f7f000000000000000000000000000000000000000000000000000000000000000073ffffffffffffffffffffffffffffffffffffffff166323b872dd3330856040518463ffffffff1660e01b815260040161049b93929190610939565b6020604051808303815f875af11580156104b7573d5f803e3d5ffd5b505050506040513d601f19601f820116820180604052508101906104db9190610873565b90508061051d576040517f08c379a0000000000000000000000000000000000000000000000000000000008152600401610514906108e8565b60405180910390fd5b5050565b7f000000000000000000000000000000000000000000000000000000000000000081565b5f80fd5b5f819050919050565b61055b81610549565b8114610565575f80fd5b50565b5f8135905061057681610552565b92915050565b5f6020828403121561059157610590610545565b5b5f61059e84828501610568565b91505092915050565b5f73ffffffffffffffffffffffffffffffffffffffff82169050919050565b5f6105d0826105a7565b9050919050565b6105e0816105c6565b81146105ea575f80fd5b50565b5f813590506105fb816105d7565b92915050565b5f6020828403121561061657610615610545565b5b5f610623848285016105ed565b91505092915050565b61063581610549565b82525050565b5f60208201905061064e5f83018461062c565b92915050565b5f819050919050565b5f61067761067261066d846105a7565b610654565b6105a7565b9050919050565b5f6106888261065d565b9050919050565b5f6106998261067e565b9050919050565b6106a98161068f565b82525050565b5f6020820190506106c25f8301846106a0565b92915050565b5f82825260208201905092915050565b7f546f6b656e42616e6b3a20616d6f756e74206973207a65726f000000000000005f82015250565b5f61070c6019836106c8565b9150610717826106d8565b602082019050919050565b5f6020820190508181035f83015261073981610700565b9050919050565b7f546f6b656e42616e6b3a20696e73756666696369656e742062616c616e6365005f82015250565b5f610774601f836106c8565b915061077f82610740565b602082019050919050565b5f6020820190508181035f8301526107a181610768565b9050919050565b7f4e487b71000000000000000000000000000000000000000000000000000000005f52601160045260245ffd5b5f6107df82610549565b91506107ea83610549565b9250828203905081811115610802576108016107a8565b5b92915050565b610811816105c6565b82525050565b5f60408201905061082a5f830185610808565b610837602083018461062c565b9392505050565b5f8115159050919050565b6108528161083e565b811461085c575f80fd5b50565b5f8151905061086d81610849565b92915050565b5f6020828403121561088857610887610545565b5b5f6108958482850161085f565b91505092915050565b7f546f6b656e42616e6b3a207472616e73666572206661696c65640000000000005f82015250565b5f6108d2601a836106c8565b91506108dd8261089e565b602082019050919050565b5f6020820190508181035f8301526108ff816108c6565b9050919050565b5f61091082610549565b915061091b83610549565b9250828201905080821115610933576109326107a8565b5b92915050565b5f60608201905061094c5f830186610808565b6109596020830185610808565b610966604083018461062c565b94935050505056fea2646970667358221220c7a5144dd932e0ac37870e49fb554563fda85bcb9606f2ae4079f457514af82264736f6c63430008190033","linkReferences":{}},"methodIdentifiers":{"balanceOf(address)":"70a08231","deposit(uint256)":"b6b55f25","token()":"fc0c546a","withdraw(uint256)":"2e1a7d4d"},"id":41}